{
  "contractName": "Todo",
  "abi": [
    {
      "inputs": [],
      "stateMutability": "nonpayable",
      "type": "constructor"
    },
    {
      "inputs": [
        {
          "internalType": "string",
          "name": "_task",
          "type": "string"
        }
      ],
      "name": "addTask",
      "outputs": [],
      "stateMutability": "nonpayable",
      "type": "function"
    },
    {
      "inputs": [
        {
          "internalType": "uint8",
          "name": "_index",
          "type": "uint8"
        }
      ],
      "name": "getTask",
      "outputs": [
        {
          "internalType": "string",
          "name": "",
          "type": "string"
        }
      ],
      "stateMutability": "view",
      "type": "function",
      "constant": true
    },
    {
      "inputs": [],
      "name": "getAllTask",
      "outputs": [
        {
          "internalType": "string[]",
          "name": "",
          "type": "string[]"
        }
      ],
      "stateMutability": "view",
      "type": "function",
      "constant": true
    },
    {
      "inputs": [
        {
          "internalType": "uint256",
          "name": "_index",
          "type": "uint256"
        }
      ],
      "name": "deleteTask",
      "outputs": [],
      "stateMutability": "nonpayable",
      "type": "function"
    },
    {
      "inputs": [],
      "name": "deleteAllTask",
      "outputs": [],
      "stateMutability": "nonpayable",
      "type": "function"
    },
    {
      "inputs": [],
      "name": "getCount",
      "outputs": [
        {
          "internalType": "uint256",
          "name": "",
          "type": "uint256"
        }
      ],
      "stateMutability": "view",
      "type": "function",
      "constant": true
    }
  ],
  "bytecode": "0x608060405234801561001057600080fd5b50336000806101000a81548173ffffffffffffffffffffffffffffffffffffffff021916908373ffffffffffffffffffffffffffffffffffffffff160217905550610986806100606000396000f3fe608060405234801561001057600080fd5b50600436106100625760003560e01c80631bbaf3cf14610067578063560f31921461008557806367238562146100a15780639f51e186146100bd578063a87d942c146100ed578063f702e48b1461010b575b600080fd5b61006f610115565b60405161007c91906105ad565b60405180910390f35b61009f600480360381019061009a9190610619565b6101ee565b005b6100bb60048036038101906100b6919061077b565b61021b565b005b6100d760048036038101906100d291906107fd565b61025a565b6040516100e49190610874565b60405180910390f35b6100f561030d565b60405161010291906108a5565b60405180910390f35b61011361031a565b005b60606001805480602002602001604051908101604052809291908181526020016000905b828210156101e5578382906000526020600020018054610158906108ef565b80601f0160208091040260200160405190810160405280929190818152602001828054610184906108ef565b80156101d15780601f106101a6576101008083540402835291602001916101d1565b820191906000526020600020905b8154815290600101906020018083116101b457829003601f168201915b505050505081526020019060010190610139565b50505050905090565b6001818154811061020257610201610921565b5b906000526020600020016000610218919061032a565b50565b60018190806001815401808255809150506001900390600052602060002001600090919091909150908051906020019061025692919061036a565b5050565b606060018260ff168154811061027357610272610921565b5b906000526020600020018054610288906108ef565b80601f01602080910402602001604051908101604052809291908181526020018280546102b4906108ef565b80156103015780601f106102d657610100808354040283529160200191610301565b820191906000526020600020905b8154815290600101906020018083116102e457829003601f168201915b50505050509050919050565b6000600180549050905090565b6001600061032891906103f0565b565b508054610336906108ef565b6000825580601f106103485750610367565b601f0160209004906000526020600020908101906103669190610411565b5b50565b828054610376906108ef565b90600052602060002090601f01602090048101928261039857600085556103df565b82601f106103b157805160ff19168380011785556103df565b828001600101855582156103df579182015b828111156103de5782518255916020019190600101906103c3565b5b5090506103ec9190610411565b5090565b508054600082559060005260206000209081019061040e919061042e565b50565b5b8082111561042a576000816000905550600101610412565b5090565b5b8082111561044e5760008181610445919061032a565b5060010161042f565b5090565b600081519050919050565b600082825260208201905092915050565b6000819050602082019050919050565b600081519050919050565b600082825260208201905092915050565b60005b838110156104b857808201518184015260208101905061049d565b838111156104c7576000848401525b50505050565b6000601f19601f8301169050919050565b60006104e98261047e565b6104f38185610489565b935061050381856020860161049a565b61050c816104cd565b840191505092915050565b600061052383836104de565b905092915050565b6000602082019050919050565b600061054382610452565b61054d818561045d565b93508360208202850161055f8561046e565b8060005b8581101561059b578484038952815161057c8582610517565b94506105878361052b565b925060208a01995050600181019050610563565b50829750879550505050505092915050565b600060208201905081810360008301526105c78184610538565b905092915050565b6000604051905090565b600080fd5b600080fd5b6000819050919050565b6105f6816105e3565b811461060157600080fd5b50565b600081359050610613816105ed565b92915050565b60006020828403121561062f5761062e6105d9565b5b600061063d84828501610604565b91505092915050565b600080fd5b600080fd5b7f4e487b7100000000000000000000000000000000000000000000000000000000600052604160045260246000fd5b610688826104cd565b810181811067ffffffffffffffff821117156106a7576106a6610650565b5b80604052505050565b60006106ba6105cf565b90506106c6828261067f565b919050565b600067ffffffffffffffff8211156106e6576106e5610650565b5b6106ef826104cd565b9050602081019050919050565b82818337600083830152505050565b600061071e610719846106cb565b6106b0565b90508281526020810184848401111561073a5761073961064b565b5b6107458482856106fc565b509392505050565b600082601f83011261076257610761610646565b5b813561077284826020860161070b565b91505092915050565b600060208284031215610791576107906105d9565b5b600082013567ffffffffffffffff8111156107af576107ae6105de565b5b6107bb8482850161074d565b91505092915050565b600060ff82169050919050565b6107da816107c4565b81146107e557600080fd5b50565b6000813590506107f7816107d1565b92915050565b600060208284031215610813576108126105d9565b5b6000610821848285016107e8565b91505092915050565b600082825260208201905092915050565b60006108468261047e565b610850818561082a565b935061086081856020860161049a565b610869816104cd565b840191505092915050565b6000602082019050818103600083015261088e818461083b565b905092915050565b61089f816105e3565b82525050565b60006020820190506108ba6000830184610896565b92915050565b7f4e487b7100000000000000000000000000000000000000000000000000000000600052602260045260246000fd5b6000600282049050600182168061090757607f821691505b6020821081141561091b5761091a6108c0565b5b50919050565b7f4e487b7100000000000000000000000000000000000000000000000000000000600052603260045260246000fdfea2646970667358221220229b3c56b5a376c6218148a16b0b72243150fbd3a3036442cecbf0cddd932b1464736f6c634300080b0033",
  "immutableReferences": {},
  "source": "// SPDX-License-Identifier: MIT\r\n\r\npragma solidity ^0.8.11;\r\n\r\ncontract Todo{\r\n    address private owner;\r\n    string [] private allTasks;\r\n\r\n    constructor () {\r\n        owner = msg.sender;\r\n    }\r\n\r\n    function addTask(string memory _task) public{\r\n        allTasks.push(_task);\r\n    }\r\n\r\n    function getTask(uint8 _index) public view returns(string memory){\r\n        return allTasks[_index];\r\n    }\r\n\r\n    function getAllTask() public view returns(string [] memory){\r\n        return allTasks;\r\n    }\r\n\r\n    function deleteTask(uint _index) public{\r\n        delete allTasks[_index];\r\n    }\r\n\r\n    function deleteAllTask() public{\r\n        delete allTasks;\r\n    }\r\n\r\n    function getCount() public view returns(uint){\r\n        return allTasks.length;\r\n    }\r\n\r\n\r\n}\r\n",
  "sourcePath": "D:\\todo-dapp\\contracts\\Todo.sol",
  "compiler": {
    "name": "solc",
    "version": "0.8.11+commit.d7f03943.Emscripten.clang"
  },
  "schemaVersion": "3.4.4",
  "updatedAt": "2022-02-20T17:14:50.314Z",
  "networkType": "ethereum",
  "devdoc": {
    "kind": "dev",
    "methods": {},
    "version": 1
  },
  "userdoc": {
    "kind": "user",
    "methods": {},
    "version": 1
  }
}